:100000006F108005000000001003000012030000C4
:1000100000000000000000000000000000000000E0
:1000200000000000000000000000000000000000D0
:100030001403000000000000561000000000000043
:100040005610000056100000561000005610000018
:100050005610000056100000561000005610000008
:1000600056100000561000005610000056100000F8
:1000700056100000561000005610000056100000E8
:1000800056100000561000005610000056100000D8
:10009000561000005610000056100000000000002E
:1000A000511126C022C206C4828282441244A24058
:1000B000310182802A86014593F6150091C232955E
:1000C00085810606F5F9828000000000634E050276
:1000D00063C305042E86AA857D5515C285466378BF
:1000E000B6006356C00006068606E36CB6FE014500
:1000F00063E4C500918D558D85820582F5FA828075
:100100008682C93F2E8582823305A04063D70500D1
:10011000B305B040C1B7B305B0408682653F330533
:10012000A0408282868263C70500634905005D376F
:100130002E858282B305B040E35B05FE3305A04007
:10014000513F3305B04082820000EFF27FF5138407
:1001500041811C4071113EC091CFAA846D2282471B
:10016000094788CB1C40A387E700239697000547E3
:10017000238EE180110115BF83A7418181CB054703
:10018000238AA700A387E700238EE1808280EFF215
:100190003FF103A48181AA84BD2203C7C1818146A6
:1001A0009387C18105468D4509E499C22380E70004
:1001B000EDBD0345F400631AC50003454401631611
:1001C0009500A307B400854605470044F1BF23AA64
:1001D00001808280EFF2DFEC138401816111232022
:1001E00004002EC22AC002951C409DC30D47024543
:1001F000924593868181A387E700984288C323872D
:10020000B70023A4070009EB9CC28546238ED1804A
:100210003E85210159BD36871447F5FE1CC7F5B749
:100220009307F00F3EC083C7C1811384C1819386B9
:1002300081819DC3904201CE3287014301458D42A9
:100240001C47B1E76303030090C2230004009C42F3
:1002500081C783C7E7003EC0984223AAE180938705
:100260004181984335C30346E7008247631EF60485
:100270000345F7000D466319C50418430297938799
:1002800041819843184798C393868181D9BF83C31E
:10029000F7006393530283C0E7008343E70063E6FC
:1002A00070008343F7006389530011C91CC5884758
:1002B00008C798C7B28701473A853E8751B7E31808
:1002C000C7FE3E860543E5B79C423EC22D288346C5
:1002D00004009247014609438D4289E729D623004D
:1002E000D40091B703C7F700631D6700984B83D311
:1002F000C7003307E54063667700A38757000546CC
:1003000085469C47D9BFEFF2BFD9EF10002071BBE3
:1003100001A001A0938701829843050798C3B7F70E
:1003200000E023A2070073002030EFF27FD793870D
:100330004182D84301C713844182028723A8F180F8
:10034000370700001307A735D8C385B301458135AA
:10035000B70700009387A73501A81305803EF53342
:10036000B70700009387C7345CC0C5B7EFF25FD30F
:100370009387C183D84361119386C18336C211C369
:10038000028723A8F1803707000013074739D8C335
:10039000210121BB0145EF005003A9455145EF0064
:1003A0009020B73500009385C5A21385018AEF1010
:1003B000402089650546938585081385018AEF00ED
:1003C000701BEF00B0020145453B1247B707000024
:1003D0009387873D5CC36DBF9387C18B03C70700BD
:1003E0003EC08547E311F7FE0145EF00007E8145E1
:1003F0000145EF00501B9386D18903C60600B73430
:100400000000938544A31385018AEF1000168965C7
:1004100005469385455E1385018AEF00B015EF0010
:1004200070191505BD451375F50FEF00D017B70707
:1004300000209387C70003C60700938544A3138554
:10044000018AEF108012896405469385840813851C
:10045000018AEF003012EF006079B7070020938720
:10046000C70003C707009386D1897D1703C606001E
:100470001377F70F2380E70031EE31F70145EF00E6
:10048000C074A9450145EF001012B73500009385EF
:1004900085A31385018AEF10C01105469385840852
:1004A0001385018AEF00100DEF004074370700201C
:1004B000032787009386D189B70700209387C70059
:1004C0002380E6001307B0032380E70082472380E0
:1004D0000700D5BDE31907EE7D161307B00323808F
:1004E000C6002380E700C5B5EFF29FBB9387418527
:1004F000D84301C713844185028723A8F1803707B9
:1005000000001307A752D8C34DB603C7C18993870C
:10051000C1890DC70147014637150140C145130583
:1005200005402380E700EF0050501305401F31398C
:10053000B70700009387A7505CC0F9B70547054689
:10054000E1BFEFF2FFB59387C186D84301C793841B
:10055000C186028723A8F1803707000013072762AE
:10056000D8C3A1B637150140854513050540EF00F6
:10057000304BB70700209387070003C70700138499
:10058000418B6308A7002380A70035E5EF00F077D3
:1005900008C01C40D9C7EF0050771C401D8DB7071D
:1005A000002083A7470063FEA7060145238E018A2A
:1005B000EF00A061A9455145EF00E07EB73500008E
:1005C000938505A41385018AEF00B07E89651385A4
:1005D000018A054693858508EF00C079EF00006128
:1005E0000565130585BB232004008536B707000089
:1005F000938747642DA81C40B9C3EF0010711C40BD
:100600001D8DB707002083A7070163FAA702938710
:10061000C18B03C707002320040001EF0547238097
:10062000E70029451D36B707000093874756DCC011
:100630000DBF8546E317D7FE23800700DDB72320D3
:100640000400C5B7B70700201307B0032386E700EF
:10065000B707002003A78700A38EE1880547238EF4
:10066000E18AC1B7EFF2DFA393874188D8437111C4
:100670009386418836C011C3028723A8F1803707CB
:1006800000001307A77DD8C3110105B43715014039
:10069000A14513050540EF00B038370700201307C8
:1006A0001700834607001384818B6388A60023000C
:1006B000A70035EDEF00706508C01840630F071004
:1006C000EF00B0641C401D8DB707002083A74700D2
:1006D00063F5A7109384E18983C704001387C18B56
:1006E00063910716854701452380F4002300070026
:1006F000E929A9455145EF00006BB7350000938506
:10070000C5A41385018AEF00D06A896505469385E3
:1007100085081385018AEF00E065C9290565130581
:1007200085BB2534B70700009387E77E75A818407E
:100730005DC3EF00905D1840198D37070020032737
:100740000701637AA70803C6E1892320040005474F
:100750006315E60837070020832687009305C0034A
:1007600013078700850663E6D50614C30145B12942
:1007700081450145EF002063B707002013878700FC
:100780001043B7350000938545A31385018AEF0018
:10079000D05D896505469385455E1385018AD92B11
:1007A000EF0040611505BD451375F50FEF00A05F23
:1007B000B7350000938585A41385018AEF00705F2B
:1007C00089650546938585081385018A652339293E
:1007D000EDB510C361BF232004002945EFF0FF965B
:1007E000B70700009387C76802475CC371BD014526
:1007F000E92E81450145452B896505469385455E72
:10080000130510038521B7070020054723A4E7003F
:1008100055231505BD451375F50F7123B735000038
:10082000938585A41385018AEF00B0588965054634
:10083000938585081385018A352B4D2E23AC018ABB
:1008400069BFEF00700937440008130504F8EF0092
:10085000D00EB7070020938787008C43130504F858
:100860001386F5FF90C3EF00F009130504F8EF00BD
:100870003010EF005008B7070020B706002093871C
:1008800087001306B0032386C6009443A38ED18845
:100890001387C18B8547238004002300F70079BFAD
:1008A000EFF21F801301C1FD2AC22EC045458545C8
:1008B00002C402C602C802CA02CC02CE02D0EF00B5
:1008C0001041854537052000EF0050429146F14424
:1008D0000D442C00371501402314D10026C822C630
:1008E000EF00500C89462C00371501402314D1002D
:1008F00026C822C6EF00100B82471247375400402B
:10090000231EF100930700403ACA231FF100370766
:10091000FFBF91674C08130504403ACC2310F10245
:10092000EF005011130504408545EF00B0208545C8
:1009300013050440EF009025130141026FF0EFF61C
:10094000EFF20FF6511185451305000202C002C2F5
:1009500002C4EF00D037A547371501402310F1003E
:100960008A8593078004130505403EC4EF00900379
:1009700031016FF08FF3EFF2AFF25111854513059E
:10098000000202C002C202C4EF007034C14723104B
:10099000F10037150140C1473EC48A858D471305D4
:1009A00005403EC2EF00100031016FF00FF0EFF292
:1009B0002FEF0545EF00D025EF000063EF00503525
:1009C000616589451305056AE13D0D216D378D3F50
:1009D000EF006072B747000883A707F8FD17A38EE2
:1009E000F188EFF0CFFE37050000A9451305854ECD
:1009F000EFF04FFE37050000A94513052554EFF031
:100A00006FFD37050000A94513054566EFF08FFC23
:100A100037050000A9451305C536EFF0AFFB3705D4
:100A20000000A9451305A532EFF0CFFAEFF04FFF14
:100A3000EFF20FE7AA8437550040854513050540BE
:100A400037040300EF00D0100504B75700401385AA
:100A50000740A285EF001017B75700407DD51385DA
:100A60000740014693058007EF009014B707070081
:100A70009387270837540040BE8513050440EF00D4
:100A80007014B7070700938727086DD5B7050010C6
:100A90009385050813050440EF00701411C58145C6
:100AA00013050440EF007010B705001037540040E4
:100AB0009385050813050440EF00701211C5A68543
:100AC00013050440EF00700E3704070013044408B8
:100AD000B7540040A28513850440EF00B00E6DD9D5
:100AE000854513850440EF0090086FF00FDCEFF2AE
:100AF0002FDB71112A84375500402EC013050540A5
:100B00008545EF00F004B70703008507B7540040A0
:100B1000BE8513850440EF00F00AB7070300850780
:100B200075D501469305800713850440EF005008F2
:100B30003707070013072708B7540040BA85138505
:100B40000440EF003008B7070700138727086DD56A
:100B5000B70500109385050813850440EF003008A1
:100B600019C59305000413850440EF001004824763
:100B7000B304F400639684023704070013044408A6
:100B8000B7540040A28513850440EF00B0036DD92F
:100B9000854513850440EF00807D11016FF0EFD093
:100BA000B7570040B7050010138507409385050827
:100BB000EF00F002B757004055DD83450400138570
:100BC00007400504EF00607E75B73335A00081470C
:100BD0001387818C3305A040930600203306F7006D
:100BE0002300A6008507E39BD7FE8280EFF24FCB60
:100BF0009384818C1304000B22851D3D01450D3D1E
:100C000041453D35268593050008D5350504137407
:100C1000F40F9307400B93840408E31FF4FC6FF078
:100C2000CFC893178501E18763C90702FD4763E6D3
:100C3000B70293D735009E07AA979D89054713856C
:100C4000818CB315B7003E95E20583070500E18569
:100C50006316E600DD8D2300B500828093C5F5FFA5
:100C6000FD8DD5BFEFF2CFC31301C1FD32C4F947EB
:100C700063D0A71003C4150003D6018C2E879305FB
:100C8000000822969387018C63C4C50E8346270013
:100C900003D627009305000236C0369663CAC50CFA
:100CA000AA840345470083473700834507003385FF
:100CB000A4403EC63AC2EFF0EFBF12471505B30796
:100CC000A7003EC2A247014793B717003ECA9387C9
:100CD000018C82466358D706937577000546331614
:100CE000B6009376F60F36C89246135337408142CA
:100CF00036931DA883C5270003461300C2461695E8
:100D0000BA95758E1AD03ACE16CC1375F50F93F5A9
:100D1000F50F0DC222463137E242724702539387E4
:100D2000018CB2468502369303D50700E3C482FCEA
:100D3000050745B75246F5359387018C0253724734
:100D4000E242C5B712470346070003D707009305E1
:100D5000260063DB8500090732972390E70026858C
:100D6000130141026FF06FB43A9423908700C5BF1E
:100D70008144F5B7EFF2CFB271112A84AE84328785
:100D80008307040089E73E8511016FF00FB23E85AD
:100D90003A86A6853AC0F93583070400E315F5FEC7
:100DA00005040247F1BF9387018C2390A70023918C
:100DB000B700828003C5018C8280EFF26FAE2A8477
:100DC00013051008B5312285A5316FF00FAEEFF293
:100DD0002FAD09E981471305E00AA382F18C893917
:100DE0006FF0AFAC85471305F00AC5BFEFF24FAB0C
:100DF0000145F13F13050002253901451539130559
:100E0000000B3D311305800C25310145153141455D
:100E100005311305000429391305F00F793F130537
:100E2000100A39311305600A21311305800A09318E
:100E30007D45EFF0FFBF1305400AEFF07FBF1305BC
:100E4000300DEFF0FFBE0145EFF09FBE1305500DD2
:100E5000EFF01FBE1305000FEFF09FBD1305900DBF
:100E6000EFF01FBD13052002EFF09FBC1305A00D8E
:100E7000EFF01FBC0945EFF0BFBB1305B00DEFF05D
:100E80003FBB13050002EFF0BFBA1305D008EFF027
:100E90003FBA5145EFF0DFB90545153F0145353300
:100EA000B1339387018C054723A007002382E70015
:100EB0006FF0AF9FEFF2CF9E371402401C40370710
:100EC000FFF8611193E717001CC05C404145F98FA2
:100ED0005CC01C403707F7FE7D17F98F1CC01C4013
:100EE0003707FCFF7D17F98F1CC05C4041777D17E9
:100EF000F98F5CC0B7079F001CC4312B1C4C370610
:100F0000020093E707021CCCB717014003A7074074
:100F1000938607401377F7F023A0E74003A7074025
:100F20001367070823A0E74089479CCA02C002C292
:100F30001C4C37070140A16693E717001CCC5C43AB
:100F4000D58F5CC31C404167B7160240D98F1CC0C7
:100F500009679C42F18F3EC2824785073EC0924797
:100F600081E78247E397E7FEB71702409C43139758
:100F7000E7006359070685473EC21247854763105D
:100F8000F706B72702409843C176FD16719B98C3B8
:100F900098431367170098C3B7170240D843D8C3C4
:100FA000D843758FD8C3D843C166558FD8C39843EB
:100FB000B7060001558F98C3984393166700E3DD89
:100FC00006FED843B7160240719BD8C3D8431367B7
:100FD0002700D8C32147DC42B18BE39EE7FE210105
:100FE0006FF0AF8C02C251BFEFF28F8B3717024008
:100FF0005C43370400209146B18B1304440263859F
:10100000D700A1466383D704B7376E019387076083
:101010001CC0B7160240DC420840918313F7F7006A
:10102000B707002093874701BA9783C50700DC42C2
:1010300093F5F50F93F707083357B50081E7EFF005
:101040006F892A8718C06FF04F865C43B777DC0240
:10105000938707C075BF01A0970100209381818508
:10106000138101F517250000130585A297F5FF1FD1
:10107000938545F91386818063FAC50083220500B4
:1010800023A0550011059105E3EAC5FE1385818073
:10109000938501AD6377B500232005001105E36D4D
:1010A000B5FEB722000093820288739002308D4211
:1010B0007390428097F2FFFF9382C2F493E2320072
:1010C00073905230EFF01FDF970200009382628E20
:1010D0007390123473002030B7066745B72702407B
:1010E000938636123797EFCDD4C31307B79AD8C378
:1010F000D4D3D8D38280372702401C4BA166D58F2A
:101100001CCB8280B70700F8AA97116763F6E70245
:10111000B7270240984BC166558F98CB0CC1984BAE
:10112000B7060400558F98CBD847058B75FF984BB1
:10113000C176FD16758F98CB8280B70700F8AA9705
:10114000116763F6E702B7270240984BB706020023
:10115000558F98CBC8CB984B1367070498CBD847CB
:10116000058B75FF984B8176FD16758F98CB828025
:10117000B70700F8AA97116763F5E702B72702409F
:10118000984BC166558F98CBC8CB984B1367070413
:1011900098CBD847058B75FF984BC176FD16758F98
:1011A00098CB8280944593F7060193F2F60081C7AD
:1011B000DC41B3E2F20083D3050093F7F30FA5C33C
:1011C00003230500611122C226C081471304800257
:1011D0009304800405473316F70033F7C300631206
:1011E000E602939527003D473317B7001347F7FFF3
:1011F00033736700B395B20033E36500639D8600E7
:1012000050C985072147E397E7FC12442320650076
:10121000824421018280E39696FE10C9DDB7828068
:1012200008456D8D3335A000828019C20CC98280BB
:101230004CC98280EFE2DFE61111835445002A8415
:1012400028002EC0D522C246C204C18093F404FCFB
:10125000B7450F00938505243685C20436C2C18088
:10126000EFE05FE7458D420541812312A4008357DB
:1012700004009246C207C183F99BC207C1832310B1
:10128000F40082479043E1679387076A931516003D
:1012900063E0C7063685EFE0FFE3AA874205418198
:1012A00091466373D5009147139507014181231E31
:1012B000A40083570400024793E717002310F400AB
:1012C00083570400835647000356A700C207C18313
:1012D000D18E93F757BFD58F2310F4008356870024
:1012E0008357C700D58F2314F40071016FE0FFDB33
:1012F000824703D56700B167FD176310F502B29509
:101300003685EFE03FDD420541819317450199E3C2
:1013100013651500A1675D8D59BFB387C5008E07A2
:10132000B385C7003685EFE0FFDA4205418191675A
:101330005D8DE1BF8357050091C593E7170023102A
:10134000F5008280C207C183F99BC207C183C5BF74
:101350008357050091C593E707102310F50082809D
:10136000C207C18393F7F7EFC207C183FDB7835765
:10137000050091C593E707202310F5008280C2077E
:10138000C18393F7F7DFC207C183FDB78357050019
:1013900091C593E707402310F5008280C207C183FF
:1013A00093F7F7BFC207C183FDB72318B50082804A
:1013B00093F7E50F19C293E71500C207C1832318FD
:1013C000F5008280835745010355850142055D8DF7
:1013D0006D8D220521810D8D1335150082806111DF
:1013E00002C002C293D7C5012AC23EC08247A205ED
:1013F000A18199CB9247D1073EC2924788432101F0
:101400006D8D3335A00082809247C181E107EDB731
:1014100023A4A1AC8280371702401C430E0593F72A
:1014200077F05D8D08C38280EFE29FC737170240D7
:101430005C4391462A84B18B6385D700A1466382C1
:10144000D708B7376E01938707601CC0B7160240F4
:10145000DC42918313F7F700B70700209387C70397
:10146000BA9783C50700DC42184093F5F50F93F750
:1014700007083355B70081E73A85EFE0BFC548C09C
:1014800008C448C4B7170240DC438D46AD83FD8BCA
:1014900013D737008A07F18BD98F13F6370113F76B
:1014A000370063F4C600138747FFB7070020938710
:1014B0008702BA9783C50700EFE0DFC108C86FE075
:1014C000DFBE5C43B777DC02938707C0BDBF99C519
:1014D000371702401C4F5D8D08CF8280B71702403E
:1014E000984F1345F5FF798D88CF828099C53717BE
:1014F00002405C4F5D8D48CF8280B7170240D84FC5
:101500001345F5FF798DC8CF828003A501828280C3
:10151000EFE21FB937F400E023220400B7070020F0
:1015200003A547029305803EEFE0DFBA08C82324F5
:101530000400BD471CC00567B7E700E023A0E71023
:101540006FE0BFB6370700201307C7041C4393861C
:1015500001AD3E956369D500938601E563E5A6007C
:1015600008C33E858280FD57EDBF130181F73EC35E
:10157000B707008093C7F7FF3ECC3EC6C17793877D
:101580008720B2DCB6DE3AC13EC897F7FF1F9387CB
:1015900067B22AC22ACA8843B4182E864C0086DA5B
:1015A00036C0292A924723800700D65013018108AC
:1015B0008280AA8703C7050085078505A38FE7FEFC
:1015C00075FB828003A38500111126C806CC22CAB0
:1015D00032C2AE8463E4660803D6C50013770648BA
:1015E00025CFAA82C84880408C49131715002A9736
:1015F0001355F701B307B4402A97138516003EC070
:10160000135417403E956373A4002A841376064052
:1016100036C63DC61685A28516C4EF007010A242DC
:10162000B246314735CD02468C4836C62AC4152706
:1016300003D6C4002243B2461376F6B713660608F3
:101640002396C400824723A86400C0C83E931D8C23
:1016500023A0640080C4368363F36600368392451A
:1016600088401A861AC0EF00407C98440243014526
:101670003307674098C498403A9323A0640015A8A4
:101680001685228616C4EF00F0162A83A242B246BF
:1016900055F98C48168516C0EF00C07D824231474F
:1016A00023A0E20003D7C4007D55136707042396E7
:1016B000E400E2405244C2447101828003D7C50075
:1016C000130181F722C1A6DE9307F10106C32AC2E6
:1016D0002EC013770708B28413F487FF1DCB9849F7
:1016E0000DEB9305000436C6EF0090038247B24627
:1016F00088C388CB19E91247B1477D551CC39A406E
:101700000A44F654130181088280824713070004BB
:10171000D8CB13070002A30CE40013070003232A0D
:101720000400230DE40036CA2687130650028346C0
:10173000070099C26396C60A330397406301030208
:10174000824512459A8626863AC81AC6A53DFD5698
:101750006308D51C5448324342479A9654C883467E
:101760000700638F061A930417007D572320040097
:101770002326040058C023240400A3010404232CBE
:10178000040483C504001546171500001305852CB5
:10179000652313871400144031E513F6060109C6CA
:1017A00013060002A301C40413F6860009C613063B
:1017B000B002A301C40483C504001306A002638021
:1017C000C504544426878145254503460700130375
:1017D0001700130606FD6379C50695C954C405A80C
:1017E0000507B1B7171600001306C6263306C54015
:1017F00005453315C500C98E14C0BA8459B7524681
:101800009305460010422ECA6349060250C403469F
:1018100007009306E0026313D606034617009306FB
:10182000A002631ED602D2460907138646009442E0
:1018300032CA63C4060254C091A03306C04093E686
:10184000260050C414C0E1B7139726003697060748
:10185000B306C70085451A878DBFFD56E9BF05074A
:1018600023220400814581462545034607001303D2
:101870001700130606FD6379C506D5FD83450700ED
:101880000D46171500001305651D3AC67521324730
:1018900011CD971600009386661C158D93060004E3
:1018A000B396A60008400507558D08C0834507007C
:1018B0001946171500001305A51A93041700230CE9
:1018C000B4009D2925C917E7FFFF1307A77305EB90
:1018D0001440524793F606108DC211073ACA584871
:1018E000A2473E9758C889B5139726003697060732
:1018F000B306C70085451A878DBF2107C5B70246C5
:101900001245580897060000938606CCA2859700DA
:101910000000E70000002AC4A2477D57E391E7FCDE
:1019200082477D5503D7C70013770704E31907DC07
:101930004848F1B3024612455808970600009386BE
:10194000A6C8A285052AC1BF011126CA3283B68462
:101950009045944922CC06CE2A84AE8763D3C60034
:10196000B2862320D30003C6370401C68506232090
:10197000D300944393F6060291C68326030089069A
:101980002320D30083A207009383970193F2620080
:1019900063830206904383C6370413760602B33688
:1019A000D00041EA13863704A68522851AC43EC2B8
:1019B0003AC00297FD566308D50692472243114567
:1019C000944303260300CC47998A01430247639757
:1019D000A6003383C5406353030001439447904BF3
:1019E0006354D600918E36938142E9076312530601
:1019F00001451DA88502D44703260300918EE3DB31
:101A0000D2F885461E86A68522851AC83EC616C40B
:101A10001EC23AC00297FD5602479243A242B24705
:101A20004243E319D5FC7D55F2406244D24405613E
:101A30008280B385D70013050003A381A50483C565
:101A40005704138616003E968906A301B60499BF73
:101A500085463E86A685228516C61AC43EC23AC071
:101A60000297FD56E301D5FCB2422243924785021C
:101A70000247ADBF130141FD22D206D426D032C2A7
:101A800003C6850136C42AC0930690062E8493822D
:101A90003504630DD60263E2C60693068005630231
:101AA000D61A63EDC600630B062293063004630C5E
:101AB000D60A930424042301C4047DA893063006A7
:101AC0006303D60A93064006E315D6FE1440084386
:101AD00013F606089305450055C214410CC363D89C
:101AE00006001307D002B306D040A301E404171682
:101AF0000000130666F729475DA893060007630EEA
:101B0000D61663E5C6029306E0066305D61A930669
:101B1000F006E310D6FA0C40144313F305081385BE
:101B200046006305030608C39442BDA09306500710
:101B3000E303D6FE930680076305D61493063007A9
:101B4000E319D6F614431386460010C38442D041ED
:101B500081452685D52219C1058D48C0584018C831
:101B6000A301040475A814439304240413864600B7
:101B700010C398422301E4040547D5B713F60604C1
:101B800014410CC329DEC206C18691BF93F505043A
:101B900008C3D9D983D606001307F0066304E610FC
:101BA00017160000130646EC2947A30104044C4015
:101BB0000CC463C5050008406D9908C099E296847D
:101BC0008DCD9684BA85368516CC32CA3AC836C6CB
:101BD000EFE00FD352464247B246329583450500A7
:101BE000FD1436852380B400BA85EFE0AFCEB2464F
:101BF00042475246E24263FDE60AA146631ED70011
:101C00001840058B11CB544018486347D700130781
:101C10000003A38FE4FEFD14B382924023285400F6
:101C20002247924602457008A285EFF0FFD17D570A
:101C3000631AE50A7D55A250125482541301C10261
:101C40008280A382C504171600001306E6E10C404B
:101C5000084313F3050814411105630D030208C37B
:101C600013F7150001C793E505020CC0414795FE27
:101C70000C4093F5F5FD0CC00DBF944193E60602B0
:101C800094C193068007A302D4041716000013061C
:101C9000E6DE75BF13F3050408C3E30303FCC206C5
:101CA000C1827DBF17160000130606DC2147F5BD73
:101CB000AA8609BF90411443CC49137306081385C3
:101CC00046006306030008C398420CC301A808C37A
:101CD00013760604984275DA2310B700232804000F
:101CE00096843DBF144892450245A24726868297B6
:101CF0007D57E301E5F41840098B1DEB724748441A
:101D0000E35BE5F23A8505BF92450245A247854669
:101D10001A863AC81AC68297FD56E30DD5F0424797
:101D20003243050754447246918EE34FD7FCF9B70E
:101D3000014713039401FDB793F5F50F2A96631439
:101D4000C5000145828083470500E38DB7FE050588
:101D5000FDB7B3C7A5008D8B3307C50081E78D475D
:101D600063E9C702AA876371E50C83C6050085078E
:101D70008505A38FD7FEE3EAE7FE828083C60500D0
:101D800085078505A38FD7FEE3EAE7FE024411012C
:101D9000828093763500AA8791CA83C6050085079D
:101DA0008505A38FD7FE93F63700FDB79376C7FF5F
:101DB000138606FE63F5C706711122C0C04903A34E
:101DC000050083A38500C0CB804D23A0670003A33B
:101DD000450080CFC04D23A2670083A2C50003A3A6
:101DE000050193854502C0CF03A4C5FF23A4770056
:101DF00023A6570023A867009387470223AE87FED8
:101E0000E3EEC7FAE3F2D7F890419107910523AECC
:101E1000C7FECDBF90419107910523AEC7FEE3EB0E
:101E2000D7FEE3E4E7F48280828063F3A504B386FF
:101E3000C500637FD5029345F6FF8147FD17639385
:101E4000F50082803387F600034307003387C7001D
:101E50002A9723006700DDB73387F5008346070024
:101E60003307F50085072300D700E317F6FE8280CD
:101E70008147E5BFCDC583A7C5FF511122C206C466
:101E800026C01384C5FF63D307003E94AA84C522ED
:101E900097E7FF1F938787229C4389EF2322040043
:101EA00097E7FF1F23AC87201244A2402685824477
:101EB00031017DAA637EF40014403307D400639699
:101EC000E7009843DC43369718C05CC0D1BFBA879F
:101ED000D84319C3E37DE4FE94433386D700631FE0
:101EE00086001040B29694C33386D700E31EC7FA2B
:101EF00010435843B29694C3D8C37DB76375C400EA
:101F0000B1479CC055B71040B306C4006316D70054
:101F100014435843B29614C058C0C0C371B78280EE
:101F2000411126C293843500F19806C622C4A1044B
:101F3000B14763F5F404B14463E4B4042AC0052A4C
:101F40001387818014438247368439E01387C18028
:101F5000184301EB3E8581453EC0ED2023A6A180BC
:101F600082473E85A6853EC0F1287D57824763148F
:101F7000E506314798C33E85E52829A0E3DE04FA4B
:101F8000B1471CC10145B2402244924441018280C4
:101F90001840058F634E07022D466376E60018C091
:101FA0003A9404C031A058406392860223A4E18091
:101FB0003E857D281305B400130744006199B307DB
:101FC000E540F1D33E94098F18C075BFD8C2CDB794
:101FD000A28640409DBF130435007198E30385FC41
:101FE000B305A4403E853EC0B1287D578247E31A21
:101FF000E5FA41B799E1B28525B7311106C822C685
:1020000026C409EA853D8147C2403244A2443E8548
:10201000510182802E8432C0AA84A1280246A28760
:10202000E374C5FEB285268532C2DD3DAA8769DD2F
:102030001246A2852AC0EFF0DFD1A28526851D3D7C
:102040008247D9B7511122C22A842E8523A601AC1A
:1020500006C4EFF02FCFFD576317F5009387C1AC8F
:102060009C4391C31CC0A2401244310182808280F3
:10207000828083A7C5FF1385C7FF63D50700AA9594
:102080009C413E958280000023111002300C00001C
:10209000FC0FFE1F073803300330033003300330DA
:1020A0000738FE1FFC0F00000000000000000000C9
:1020B0000900000000100038001C000E000700FF9F
:1020C0003FFF3F0000000000000000000000000093
:1020D0000000000B00001C3E1E3F9F338331833104
:1020E00083318331C331FF307E30000000000000B7
:1020F0000000000000000C000000000C1E0E3E0F4F
:10210000380330C330C330C330C330FF3F3E1F00FD
:102110000000000000000000000C00078007E0073E
:10212000F00678061E060F060706FF3FFF3F000673
:102130000006000000000000000000000C0000008D
:10214000007F1C7F1C7F3C333033303330333033DF
:1021500030F31FC30F000000000000000000000C5F
:102160000000FC0FFE1F8730C330C330C330C330C4
:10217000C330C330CE1F8E0F0000000000000000EF
:1021800000000B00000300030003200338033EC3DC
:102190000FF303FF003F000F0000000000000000ED
:1021A00000000000000B000000003E1FFF3FC33096
:1021B000C330C330C330C330FF3F3E1F00000000B8
:1021C00000000000000000000B00007E1CFE3CC36D
:1021D00030C330C330C330C3304330FE1FFC0F0068
:1021E000000000000000000000000003000030308C
:1021F000303000000000000000000000000000007F
:1022000000000000000000000000000000000300CB
:102210000030B030F00000000000000000000000BE
:1022200000000000000000000000000000000000AE
:10223000000A0000E000E000B001B001180318033C
:102240000C060C06060C0000000000000000000058
:10225000000000000C000030033003300330033076
:102260000330033003300330033003300300000039
:10227000000000000000000A00000E0E0C061C0703
:102280001803B803B001F001E000E0000000000016
:10229000000000000000000000000A00000C000E1A
:1022A000000F008333C333C300C3007F003E000030
:1022B000000000000000000000000000000E000010
:1022C000F81F04100220E223F22712241224122401
:1022D000F227F23702240404F80300000000000093
:1022E0000D0030003EC03FF80FFF061F0603060F2B
:1022F000067F06F807C03F003E00380000000000DF
:102300000000000C00000000FF3FFF3FC330C3305F
:10231000C330C330C330C330FF3F3E1F0000000056
:102320000000000000000C0000FC0FFE1F07380337
:102330003003300330033003300F3E0E1E0C1E00FE
:102340000000000000000000000D0000FF3FFF3F04
:1023500003300330033003300330033003300738D9
:10236000FE1FFC0F00000000000000000A0000FF3C
:102370003FFF3FC330C330C330C330C330C330C36B
:102380003000000000000000000000000000000B12
:1023900000000000FF3FFF3FC300C300C300C300B5
:1023A000C300C300030000000000000000000000A4
:1023B00000000C0000FC0FFE1F07380330033083C1
:1023C000318331833183398F1F8E0F00000000006D
:1023D00000000000000C0000FF3FFF3FC000C000F5
:1023E000C000C000C000C000C000FF3FFF3F0000B1
:1023F00000000000000000000400000000FF3FFF9C
:102400003F0000000000000000000000000000008D
:10241000000000000000000000000009001E003E57
:1024200000300030003000300030FF3FFF1F000060
:1024300000000000000000000000000000000E008E
:10244000000000FF3FFF3FC000C000F001F8073C64
:102450000F1E1E0F3C03380120002000000000006A
:10246000000B00000000FF3FFF3F00300030003055
:10247000003000300030003000000000000000009C
:1024800000000000110000FF3FFF3F0F003F00FE73
:1024900001F807C01F003E003EC03FF807FE017F65
:1024A000000F00FF3FFF3F0E0000FF3FFF3F070010
:1024B0001F007F00FE01F807E01F803F003E00384C
:1024C000FF3FFF3F0000000000000C0000FC0FFE7B
:1024D0001F0738033003300330033003300738FE62
:1024E0001FFC0F000000000000000000000C0000B6
:1024F000FF3FFF3F83018301830183018301830148
:102500008301FE007C0000000000000000000000CD
:102510000D0000FC0FFE1F07380330033083330328
:1025200033033F073EFE1FFC3F0010000000000089
:102530000000000C00000000FF3FFF3F830183010B
:102540008301830183018301FF3F7E3E0000000081
:102550000000000000000B00007E1CFE3CE330C3C6
:1025600030C330C330C330C330CF3F8E1F000000B4
:102570000000000000000000000A03000300030048
:102580000300FF3FFF3F03000300030003000000C0
:102590000000000000000000000000000C0000FF30
:1025A0001FFF1F00380030003000300030003000C6
:1025B00038FF1FFF0F000000000000000000000DAA
:1025C00003001F00FF00FC07E03F003F0030003F1A
:1025D000E03FFC07FF001F000300000000000000B8
:1025E000000000006D1B2004301AC0FFFF07F0FF41
:1025F000FF1FF8FFFF3FFCFFFF3FFEFFFF7FFEFFD7
:10260000FF7F7F0000FE3F0000FC1F0000F81F005E
:1026100000F81F0000F81FC003F81FE007F81FE0D4
:1026200007F81FC003F81F0000F81F0000F81F0084
:1026300000F83F0000FC7F0000FFFEFFFF7FFEFF71
:10264000FF7FFCFFFF3FFCFFFF1FF8FFFF0FE0FFD6
:10265000FF03000000001300000000000200000063
:10266000070000800F0000C03F0000E01F0000E0F6
:102670000F0000F0070000F8030000FC010000FE5E
:102680000000007F0000003F000000FFFFFFFFFF91
:10269000FFFFFFFFFFFFFFFFFFFFFFFFFFFFFFFF4A
:1026A000FFFFFF000000000000000000000000002D
:1026B000000000000000000000000000000000001A
:1026C0000000001900000000E00FE0FFF80FF8FF25
:1026D000FC0FFCFFFE0FFCFFFE0FFEFFFE0FFEFFD8
:1026E0003F003EF81F003EF81F001FF81F001FF8B4
:1026F0001F001FF81F001FF81F001FF81F800FF892
:102700001F800FF81F800FF83F800FF87FC00FF871
:10271000FEFF07F8FEFF07F8FEFF07F8FCFF03F8CF
:10272000F8FF01F8E07F00F8000000000000000062
:10273000190000E007E007E01FF807E03FFC07E0B2
:102740007FFE07E07FFE07E07FFE0700FC3F000002
:10275000FC1F0000F81F0000F81F0000F81FE00336
:10276000F81FE003F81FE003F81FE003F81FE00381
:10277000F81FE003F81FE003FC3FF007FEFE7FFFB9
:102780007FFE7FFF7FFE7FFF7FFC7FFE3FF83FFEE7
:102790001FE00FF80700000000000000001B000011
:1027A000FE010080FF0100C0FF0100E0FF0100F01A
:1027B000FF0100FCF70100FEF30100FFF001C07F04
:1027C000F001E03FF001F00FF001FC07F001FE0323
:1027D000F001FF00F0017F00F0013F00F0011F0059
:1027E000F001FFFFFFFFFFFFFFFFFFFFFFFFFFFF06
:1027F000FFFFFFFFFFFFFFFFFFFF0000F0010000F2
:10280000F0010000F0010000F0011900000000FFDD
:10281000FF810FFFFF811FFFFF813FFFFF817FFFD0
:10282000FF817FFFFF81FF1FF000FC1F7800F81F72
:102830007800F81F7C00F81F7C00F81F7C00F81F50
:102840007C00F81F7C00F81F7C00F81F7C00F81F3C
:10285000FC00FC1FFC01FE1FF8FF7F1FF8FF7F1F1D
:10286000F8FF3F1FF0FF3F1FE0FF1F0000FF0300C6
:10287000000000000000001900000000C0FFFF037E
:10288000F0FFFF0FFCFFFF3FFCFFFF3FFEFFFF7F5E
:10289000FEFFFF7F7FC003FE3FE003FC1FE001F867
:1028A0001FF001F81FF001F81FF001F81FF001F808
:1028B0001FF001F81FF001F81FF001F81FF001FCF4
:1028C0003FF003FEFFF1FF7FFEE1FF7FFEE1FF7FB0
:1028D000FCC1FF3FF881FF1FE001FE030000000084
:1028E00000000000181F0000001F0000001F000073
:1028F000001F0000001F0000801F0000C01F00001C
:10290000F01F0000FC1F0000FF1F00C0FF1F00F0B1
:10291000FF1F00FC7F1F00FF1F1FC0FF071FF0FFEE
:10292000011FFC7F001FFF1F00DFFF0700FFFF01EB
:1029300000FF7F0000FF1F0000FF070000FF0100F5
:10294000007F000000000000000000000000000008
:10295000001900000000E00FF807F83FFE1FFC3FE1
:10296000FF3FFE7FFF7FFE7FFF7FFFFFFF7F3FF088
:1029700007FC1FE003F81FE003F81FE003F81FE067
:1029800003F81FE003F81FE003F81FE003F81FE05F
:1029900003F81FE003F81FE003FC3FF007FCFFFF14
:1029A000FFFFFE7FFF7FFE7FFF7FFC7FFF3FF83F43
:1029B000FE1FE00FFC0700000000000000001900EF
:1029C000000000C07F8007F8FF811FFCFF833FFEEF
:1029D000FF877FFEFF877FFEFF8FFF3FC00FFC3F1B
:1029E000800FF81F800FF81F800FF81F800FF81F4F
:1029F000800FF81F800FF81F800FF81F800FF81F3F
:102A00008007F83FC007FC7FC003FEFEFFFF7FFE8C
:102A1000FFFF7FFEFFFF7FFCFFFF3FF0FFFF0FC0C8
:102A2000FFFF0300000000000000000054494D4576
:102A3000520000002564000054494D454F55540094
:102A400052455345540000004D494E005345540033
:102A5000232D302B20000000686C4C006566674514
:102A60004647000030313233343536373839414249
:102A700043444546000000003031323334353637A8
:0C2A800038396162636465660000000084
:102A8C0001010000DC050000010000003B0000001B
:102A9C0005000000010203040506070801020304F7
:102AAC0005060708006CDC020204060804080C107A
:102ABC0008101820102030402040608001020304D0
:102ACC000506070801020304050607088003002019
:102ADC0000000000000000000000000000000000EA
:102AEC0000000000000000000000000000000000DA
:102AFC0000000000000000000000000000000000CA
:102B0C0000000000000000000000000000000000B9
:102B1C0000000000000000000000000000000000A9
:102B2C000000000000000000000000000000000099
:082B3C00500000200000000021
:00000001FF
